{
  "contractName": "ZombieHelper",
  "abi": [
    {
      "anonymous": false,
      "inputs": [
        {
          "indexed": false,
          "internalType": "uint256",
          "name": "zombieId",
          "type": "uint256"
        },
        {
          "indexed": false,
          "internalType": "string",
          "name": "name",
          "type": "string"
        },
        {
          "indexed": false,
          "internalType": "uint256",
          "name": "dna",
          "type": "uint256"
        }
      ],
      "name": "NewZombie",
      "type": "event"
    },
    {
      "anonymous": false,
      "inputs": [
        {
          "indexed": true,
          "internalType": "address",
          "name": "previousOwner",
          "type": "address"
        },
        {
          "indexed": true,
          "internalType": "address",
          "name": "newOwner",
          "type": "address"
        }
      ],
      "name": "OwnershipTransferred",
      "type": "event"
    },
    {
      "inputs": [
        {
          "internalType": "string",
          "name": "name",
          "type": "string"
        }
      ],
      "name": "createRandomZombie",
      "outputs": [],
      "stateMutability": "nonpayable",
      "type": "function"
    },
    {
      "inputs": [
        {
          "internalType": "uint256",
          "name": "zombieId",
          "type": "uint256"
        },
        {
          "internalType": "uint256",
          "name": "targetDna",
          "type": "uint256"
        },
        {
          "internalType": "string",
          "name": "species",
          "type": "string"
        }
      ],
      "name": "feedAndMultiply",
      "outputs": [],
      "stateMutability": "nonpayable",
      "type": "function"
    },
    {
      "inputs": [
        {
          "internalType": "uint256",
          "name": "zombieId",
          "type": "uint256"
        },
        {
          "internalType": "uint256",
          "name": "kittyId",
          "type": "uint256"
        }
      ],
      "name": "feedOnKitty",
      "outputs": [],
      "stateMutability": "nonpayable",
      "type": "function"
    },
    {
      "inputs": [],
      "name": "owner",
      "outputs": [
        {
          "internalType": "address payable",
          "name": "",
          "type": "address"
        }
      ],
      "stateMutability": "view",
      "type": "function"
    },
    {
      "inputs": [
        {
          "internalType": "address",
          "name": "ckAddress",
          "type": "address"
        }
      ],
      "name": "setKittyContractAddress",
      "outputs": [],
      "stateMutability": "nonpayable",
      "type": "function"
    },
    {
      "inputs": [
        {
          "internalType": "address payable",
          "name": "newOwner",
          "type": "address"
        }
      ],
      "name": "transferOwnership",
      "outputs": [],
      "stateMutability": "nonpayable",
      "type": "function"
    },
    {
      "inputs": [
        {
          "internalType": "uint256",
          "name": "",
          "type": "uint256"
        }
      ],
      "name": "zombieToOwner",
      "outputs": [
        {
          "internalType": "address",
          "name": "",
          "type": "address"
        }
      ],
      "stateMutability": "view",
      "type": "function"
    },
    {
      "inputs": [
        {
          "internalType": "uint256",
          "name": "",
          "type": "uint256"
        }
      ],
      "name": "zombies",
      "outputs": [
        {
          "internalType": "string",
          "name": "name",
          "type": "string"
        },
        {
          "internalType": "uint256",
          "name": "dna",
          "type": "uint256"
        },
        {
          "internalType": "uint32",
          "name": "level",
          "type": "uint32"
        },
        {
          "internalType": "uint32",
          "name": "readyTime",
          "type": "uint32"
        },
        {
          "internalType": "uint16",
          "name": "winCount",
          "type": "uint16"
        },
        {
          "internalType": "uint16",
          "name": "lossCount",
          "type": "uint16"
        }
      ],
      "stateMutability": "view",
      "type": "function"
    },
    {
      "inputs": [],
      "name": "withdraw",
      "outputs": [],
      "stateMutability": "nonpayable",
      "type": "function"
    },
    {
      "inputs": [
        {
          "internalType": "uint256",
          "name": "fee",
          "type": "uint256"
        }
      ],
      "name": "setLevelUpFee",
      "outputs": [],
      "stateMutability": "nonpayable",
      "type": "function"
    },
    {
      "inputs": [
        {
          "internalType": "uint256",
          "name": "zombieId",
          "type": "uint256"
        }
      ],
      "name": "levelUp",
      "outputs": [],
      "stateMutability": "payable",
      "type": "function"
    },
    {
      "inputs": [
        {
          "internalType": "uint256",
          "name": "zombieId",
          "type": "uint256"
        },
        {
          "internalType": "string",
          "name": "name",
          "type": "string"
        }
      ],
      "name": "changeName",
      "outputs": [],
      "stateMutability": "nonpayable",
      "type": "function"
    },
    {
      "inputs": [
        {
          "internalType": "uint256",
          "name": "zombieId",
          "type": "uint256"
        },
        {
          "internalType": "uint256",
          "name": "newDna",
          "type": "uint256"
        }
      ],
      "name": "changeDna",
      "outputs": [],
      "stateMutability": "nonpayable",
      "type": "function"
    },
    {
      "inputs": [
        {
          "internalType": "address",
          "name": "owner",
          "type": "address"
        }
      ],
      "name": "getZombiesByOwner",
      "outputs": [
        {
          "internalType": "uint256[]",
          "name": "",
          "type": "uint256[]"
        }
      ],
      "stateMutability": "view",
      "type": "function"
    }
  ],
  "bytecode": "0x60806040526010600155600154600a0a6002556201518060035566038d7ea4c6800060085534801561003057600080fd5b50336000806101000a81548173ffffffffffffffffffffffffffffffffffffffff021916908373ffffffffffffffffffffffffffffffffffffffff1602179055506117bb806100806000396000f3fe6080604052600436106100dd5760003560e01c80635faf28801161007f5780638da5cb5b116100595780638da5cb5b1461059c578063c39cbef1146105dd578063ccf670f8146106af578063f2fde38b146106ea576100dd565b80635faf2880146103b35780636b0bfc80146103f85780637bff0a01146104d4576100dd565b80633ccfd60b116100bb5780633ccfd60b146102405780634412e10414610257578063528b7b8f146102fd5780635f4623f114610362576100dd565b80630ce90ec2146100e257806317a7f4cc146101105780632052465e14610155575b600080fd5b61010e600480360360208110156100f857600080fd5b810190808035906020019092919050505061073b565b005b34801561011c57600080fd5b506101536004803603604081101561013357600080fd5b810190808035906020019092919080359060200190929190505050610795565b005b34801561016157600080fd5b5061018e6004803603602081101561017857600080fd5b8101908080359060200190929190505050610920565b60405180806020018781526020018663ffffffff1681526020018563ffffffff1681526020018461ffff1681526020018361ffff168152602001828103825288818151815260200191508051906020019080838360005b838110156102005780820151818401526020810190506101e5565b50505050905090810190601f16801561022d5780820380516001836020036101000a031916815260200191505b5097505050505050505060405180910390f35b34801561024c57600080fd5b50610255610a40565b005b34801561026357600080fd5b506102a66004803603602081101561027a57600080fd5b81019080803573ffffffffffffffffffffffffffffffffffffffff169060200190929190505050610b01565b6040518080602001828103825283818151815260200191508051906020019060200280838360005b838110156102e95780820151818401526020810190506102ce565b505050509050019250505060405180910390f35b34801561030957600080fd5b506103366004803603602081101561032057600080fd5b8101908080359060200190929190505050610c4b565b604051808273ffffffffffffffffffffffffffffffffffffffff16815260200191505060405180910390f35b34801561036e57600080fd5b506103b16004803603602081101561038557600080fd5b81019080803573ffffffffffffffffffffffffffffffffffffffff169060200190929190505050610c7e565b005b3480156103bf57600080fd5b506103f6600480360360408110156103d657600080fd5b810190808035906020019092919080359060200190929190505050610d1a565b005b34801561040457600080fd5b506104d26004803603606081101561041b57600080fd5b8101908080359060200190929190803590602001909291908035906020019064010000000081111561044c57600080fd5b82018360208201111561045e57600080fd5b8035906020019184600183028401116401000000008311171561048057600080fd5b91908080601f016020809104026020016040519081016040528093929190818152602001838380828437600081840152601f19601f820116905080830192505050505050509192919290505050610df4565b005b3480156104e057600080fd5b5061059a600480360360208110156104f757600080fd5b810190808035906020019064010000000081111561051457600080fd5b82018360208201111561052657600080fd5b8035906020019184600183028401116401000000008311171561054857600080fd5b91908080601f016020809104026020016040519081016040528093929190818152602001838380828437600081840152601f19601f820116905080830192505050505050509192919290505050610fd6565b005b3480156105a857600080fd5b506105b161103d565b604051808273ffffffffffffffffffffffffffffffffffffffff16815260200191505060405180910390f35b3480156105e957600080fd5b506106ad6004803603604081101561060057600080fd5b81019080803590602001909291908035906020019064010000000081111561062757600080fd5b82018360208201111561063957600080fd5b8035906020019184600183028401116401000000008311171561065b57600080fd5b91908080601f016020809104026020016040519081016040528093929190818152602001838380828437600081840152601f19601f820116905080830192505050505050509192919290505050611061565b005b3480156106bb57600080fd5b506106e8600480360360208110156106d257600080fd5b810190808035906020019092919050505061114b565b005b3480156106f657600080fd5b506107396004803603602081101561070d57600080fd5b81019080803573ffffffffffffffffffffffffffffffffffffffff1690602001909291905050506111ad565b005b600854341461074957600080fd5b61079160016004838154811061075b57fe5b906000526020600020906003020160020160009054906101000a900463ffffffff1663ffffffff166112fc90919063ffffffff16565b5050565b6000600760009054906101000a900473ffffffffffffffffffffffffffffffffffffffff1673ffffffffffffffffffffffffffffffffffffffff1663e98b7f4d836040518263ffffffff1660e01b8152600401808281526020019150506101406040518083038186803b15801561080b57600080fd5b505afa15801561081f573d6000803e3d6000fd5b505050506040513d61014081101561083657600080fd5b81019080805190602001909291908051906020019092919080519060200190929190805190602001909291908051906020019092919080519060200190929190805190602001909291908051906020019092919080519060200190929190805190602001909291905050509091929394959697985090919293949596975090919293949596509091929394955090919293945090919293509091925090915090508091505061091b83826040518060400160405280600581526020017f6b69747479000000000000000000000000000000000000000000000000000000815250610df4565b505050565b6004818154811061093057600080fd5b9060005260206000209060030201600091509050806000018054600181600116156101000203166002900480601f0160208091040260200160405190810160405280929190818152602001828054600181600116156101000203166002900480156109dc5780601f106109b1576101008083540402835291602001916109dc565b820191906000526020600020905b8154815290600101906020018083116109bf57829003601f168201915b5050505050908060010154908060020160009054906101000a900463ffffffff16908060020160049054906101000a900463ffffffff16908060020160089054906101000a900461ffff169080600201600a9054906101000a900461ffff16905086565b60008054906101000a900473ffffffffffffffffffffffffffffffffffffffff1673ffffffffffffffffffffffffffffffffffffffff163373ffffffffffffffffffffffffffffffffffffffff1614610a9857600080fd5b60008054906101000a900473ffffffffffffffffffffffffffffffffffffffff1673ffffffffffffffffffffffffffffffffffffffff166108fc479081150290604051600060405180830381858888f19350505050158015610afe573d6000803e3d6000fd5b50565b606080600660008473ffffffffffffffffffffffffffffffffffffffff1673ffffffffffffffffffffffffffffffffffffffff1681526020019081526020016000205467ffffffffffffffff81118015610b5a57600080fd5b50604051908082528060200260200182016040528015610b895781602001602082028036833780820191505090505b5090506000805b600480549050811015610c40578473ffffffffffffffffffffffffffffffffffffffff166005600083815260200190815260200160002060009054906101000a900473ffffffffffffffffffffffffffffffffffffffff1673ffffffffffffffffffffffffffffffffffffffff161415610c335780838381518110610c1157fe5b602002602001018181525050610c3160018361132490919063ffffffff16565b505b8080600101915050610b90565b508192505050919050565b60056020528060005260406000206000915054906101000a900473ffffffffffffffffffffffffffffffffffffffff1681565b60008054906101000a900473ffffffffffffffffffffffffffffffffffffffff1673ffffffffffffffffffffffffffffffffffffffff163373ffffffffffffffffffffffffffffffffffffffff1614610cd657600080fd5b80600760006101000a81548173ffffffffffffffffffffffffffffffffffffffff021916908373ffffffffffffffffffffffffffffffffffffffff16021790555050565b6014828160048281548110610d2b57fe5b906000526020600020906003020160020160009054906101000a900463ffffffff1663ffffffff161015610d5e57600080fd5b836005600082815260200190815260200160002060009054906101000a900473ffffffffffffffffffffffffffffffffffffffff1673ffffffffffffffffffffffffffffffffffffffff163373ffffffffffffffffffffffffffffffffffffffff1614610dca57600080fd5b8360048681548110610dd857fe5b9060005260206000209060030201600101819055505050505050565b826005600082815260200190815260200160002060009054906101000a900473ffffffffffffffffffffffffffffffffffffffff1673ffffffffffffffffffffffffffffffffffffffff163373ffffffffffffffffffffffffffffffffffffffff1614610e6057600080fd5b600060048581548110610e6f57fe5b90600052602060002090600302019050610e8881611340565b610e9157600080fd5b6002548481610e9c57fe5b069350600060028583600101540181610eb157fe5b04905060405160200180807f6b69747479000000000000000000000000000000000000000000000000000000815250600501905060405160208183030381529060405280519060200120846040516020018082805190602001908083835b60208310610f325780518252602082019150602081019050602083039250610f0f565b6001836020036101000a038019825116818451168082178552505050505050905001915050604051602081830303815290604052805190602001201415610f8657606360648281610f7f57fe5b0682030190505b610fc56040518060400160405280600681526020017f4e6f4e616d65000000000000000000000000000000000000000000000000000081525082611367565b610fce8261160b565b505050505050565b6000600660003373ffffffffffffffffffffffffffffffffffffffff1673ffffffffffffffffffffffffffffffffffffffff168152602001908152602001600020541461102257600080fd5b600061102d82611635565b90506110398282611367565b5050565b60008054906101000a900473ffffffffffffffffffffffffffffffffffffffff1681565b600282816004828154811061107257fe5b906000526020600020906003020160020160009054906101000a900463ffffffff1663ffffffff1610156110a557600080fd5b836005600082815260200190815260200160002060009054906101000a900473ffffffffffffffffffffffffffffffffffffffff1673ffffffffffffffffffffffffffffffffffffffff163373ffffffffffffffffffffffffffffffffffffffff161461111157600080fd5b836004868154811061111f57fe5b906000526020600020906003020160000190805190602001906111439291906116da565b505050505050565b60008054906101000a900473ffffffffffffffffffffffffffffffffffffffff1673ffffffffffffffffffffffffffffffffffffffff163373ffffffffffffffffffffffffffffffffffffffff16146111a357600080fd5b8060088190555050565b60008054906101000a900473ffffffffffffffffffffffffffffffffffffffff1673ffffffffffffffffffffffffffffffffffffffff163373ffffffffffffffffffffffffffffffffffffffff161461120557600080fd5b600073ffffffffffffffffffffffffffffffffffffffff168173ffffffffffffffffffffffffffffffffffffffff16141561123f57600080fd5b8073ffffffffffffffffffffffffffffffffffffffff1660008054906101000a900473ffffffffffffffffffffffffffffffffffffffff1673ffffffffffffffffffffffffffffffffffffffff167f8be0079c531659141344cd1fd0a4f28419497f9722a3daafe3b4186f6b6457e060405160405180910390a3806000806101000a81548173ffffffffffffffffffffffffffffffffffffffff021916908373ffffffffffffffffffffffffffffffffffffffff16021790555050565b60008082840190508363ffffffff168163ffffffff16101561131a57fe5b8091505092915050565b60008082840190508381101561133657fe5b8091505092915050565b6000428260020160049054906101000a900463ffffffff1663ffffffff1611159050919050565b60046040518060c00160405280848152602001838152602001600163ffffffff168152602001600354420163ffffffff168152602001600061ffff168152602001600061ffff16815250908060018154018082558091505060019003906000526020600020906003020160009091909190915060008201518160000190805190602001906113f69291906116da565b506020820151816001015560408201518160020160006101000a81548163ffffffff021916908363ffffffff16021790555060608201518160020160046101000a81548163ffffffff021916908363ffffffff16021790555060808201518160020160086101000a81548161ffff021916908361ffff16021790555060a082015181600201600a6101000a81548161ffff021916908361ffff160217905550505060006114b260016004805490506116c390919063ffffffff16565b9050336005600083815260200190815260200160002060006101000a81548173ffffffffffffffffffffffffffffffffffffffff021916908373ffffffffffffffffffffffffffffffffffffffff1602179055506115596001600660003373ffffffffffffffffffffffffffffffffffffffff1673ffffffffffffffffffffffffffffffffffffffff1681526020019081526020016000205461132490919063ffffffff16565b507f88f026aacbbecc90c18411df4b1185fd8d9be2470f1962f192bf84a27d0704b78184846040518084815260200180602001838152602001828103825284818151815260200191508051906020019080838360005b838110156115ca5780820151818401526020810190506115af565b50505050905090810190601f1680156115f75780820380516001836020036101000a031916815260200191505b5094505050505060405180910390a1505050565b60035442018160020160046101000a81548163ffffffff021916908363ffffffff16021790555050565b600080826040516020018082805190602001908083835b6020831061166f578051825260208201915060208101905060208303925061164c565b6001836020036101000a0380198251168184511680821785525050505050509050019150506040516020818303038152906040528051906020012060001c905060025481816116ba57fe5b06915050919050565b6000828211156116cf57fe5b818303905092915050565b828054600181600116156101000203166002900490600052602060002090601f0160209004810192826117105760008555611757565b82601f1061172957805160ff1916838001178555611757565b82800160010185558215611757579182015b8281111561175657825182559160200191906001019061173b565b5b5090506117649190611768565b5090565b5b80821115611781576000816000905550600101611769565b509056fea2646970667358221220fedf016bc6124f3678f72db2e3b3aead89ee7e9211a4a68898d9196725cddfa564736f6c63430007040033",
  "immutableReferences": {},
  "source": "// SPDX-License-Identifier: MIT\npragma solidity =0.7.4;\n\nimport \"./ZombieFeeding.sol\";\n\ncontract ZombieHelper is ZombieFeeding {\n\n    using SafeMath for uint256;\n    using SafeMath32 for uint32;\n    using SafeMath16 for uint16;\n\n    uint levelUpFee = 0.001 ether;\n\n    modifier aboveLevel(uint level, uint zombieId) {\n        require(zombies[zombieId].level >= level);\n        _;\n    }\n\n    function withdraw() external onlyOwner {\n        owner.transfer(address(this).balance);\n    }\n\n    function setLevelUpFee(uint fee) external onlyOwner {\n        levelUpFee = fee;\n    }\n\n    function levelUp(uint zombieId) external payable {\n        require(msg.value == levelUpFee);\n        zombies[zombieId].level.add(1);\n    }\n\n    function changeName(uint zombieId, string memory name) external aboveLevel(2, zombieId) onlyOwnerOf(zombieId) {\n        zombies[zombieId].name = name;\n    }\n\n    function changeDna(uint zombieId, uint newDna) external aboveLevel(20, zombieId) onlyOwnerOf(zombieId) {\n        zombies[zombieId].dna = newDna;\n    }\n\n    function getZombiesByOwner(address owner) external view returns (uint[] memory) {\n        uint[] memory result = new uint[](ownerZombieCount[owner]);\n        uint counter = 0;\n        for (uint i = 0; i < zombies.length; i++) {\n            if (zombieToOwner[i] == owner) {\n                result[counter] = i;\n                counter.add(1);\n            }\n        }\n        return result;\n    }\n\n}",
  "sourcePath": "/Users/scott/Desktop/dapp/contracts/module/ZombieHelper.sol",
  "compiler": {
    "name": "solc",
    "version": "0.7.4+commit.3f05b770.Emscripten.clang"
  },
  "schemaVersion": "3.3.4",
  "updatedAt": "2021-03-19T07:29:42.107Z",
  "devdoc": {
    "kind": "dev",
    "methods": {
      "transferOwnership(address)": {
        "details": "Allows the current owner to transfer control of the contract to a newOwner.",
        "params": {
          "newOwner": "The address to transfer ownership to."
        }
      }
    },
    "version": 1
  },
  "userdoc": {
    "kind": "user",
    "methods": {},
    "version": 1
  }
}