{
  "contractName": "ZombieOwnerShip",
  "abi": [
    {
      "anonymous": false,
      "inputs": [
        {
          "indexed": true,
          "internalType": "address",
          "name": "owner",
          "type": "address"
        },
        {
          "indexed": true,
          "internalType": "address",
          "name": "approved",
          "type": "address"
        },
        {
          "indexed": false,
          "internalType": "uint256",
          "name": "tokenId",
          "type": "uint256"
        }
      ],
      "name": "Approval",
      "type": "event"
    },
    {
      "anonymous": false,
      "inputs": [
        {
          "indexed": false,
          "internalType": "uint256",
          "name": "zombieId",
          "type": "uint256"
        },
        {
          "indexed": false,
          "internalType": "string",
          "name": "name",
          "type": "string"
        },
        {
          "indexed": false,
          "internalType": "uint256",
          "name": "dna",
          "type": "uint256"
        }
      ],
      "name": "NewZombie",
      "type": "event"
    },
    {
      "anonymous": false,
      "inputs": [
        {
          "indexed": true,
          "internalType": "address",
          "name": "previousOwner",
          "type": "address"
        },
        {
          "indexed": true,
          "internalType": "address",
          "name": "newOwner",
          "type": "address"
        }
      ],
      "name": "OwnershipTransferred",
      "type": "event"
    },
    {
      "anonymous": false,
      "inputs": [
        {
          "indexed": true,
          "internalType": "address",
          "name": "from",
          "type": "address"
        },
        {
          "indexed": true,
          "internalType": "address",
          "name": "to",
          "type": "address"
        },
        {
          "indexed": false,
          "internalType": "uint256",
          "name": "tokenId",
          "type": "uint256"
        }
      ],
      "name": "Transfer",
      "type": "event"
    },
    {
      "inputs": [
        {
          "internalType": "uint256",
          "name": "zombieId",
          "type": "uint256"
        },
        {
          "internalType": "uint256",
          "name": "targetId",
          "type": "uint256"
        }
      ],
      "name": "attack",
      "outputs": [],
      "stateMutability": "nonpayable",
      "type": "function"
    },
    {
      "inputs": [
        {
          "internalType": "uint256",
          "name": "zombieId",
          "type": "uint256"
        },
        {
          "internalType": "uint256",
          "name": "newDna",
          "type": "uint256"
        }
      ],
      "name": "changeDna",
      "outputs": [],
      "stateMutability": "nonpayable",
      "type": "function"
    },
    {
      "inputs": [
        {
          "internalType": "uint256",
          "name": "zombieId",
          "type": "uint256"
        },
        {
          "internalType": "string",
          "name": "name",
          "type": "string"
        }
      ],
      "name": "changeName",
      "outputs": [],
      "stateMutability": "nonpayable",
      "type": "function"
    },
    {
      "inputs": [
        {
          "internalType": "string",
          "name": "name",
          "type": "string"
        }
      ],
      "name": "createRandomZombie",
      "outputs": [],
      "stateMutability": "nonpayable",
      "type": "function"
    },
    {
      "inputs": [
        {
          "internalType": "uint256",
          "name": "zombieId",
          "type": "uint256"
        },
        {
          "internalType": "uint256",
          "name": "targetDna",
          "type": "uint256"
        },
        {
          "internalType": "string",
          "name": "species",
          "type": "string"
        }
      ],
      "name": "feedAndMultiply",
      "outputs": [],
      "stateMutability": "nonpayable",
      "type": "function"
    },
    {
      "inputs": [
        {
          "internalType": "uint256",
          "name": "zombieId",
          "type": "uint256"
        },
        {
          "internalType": "uint256",
          "name": "kittyId",
          "type": "uint256"
        }
      ],
      "name": "feedOnKitty",
      "outputs": [],
      "stateMutability": "nonpayable",
      "type": "function"
    },
    {
      "inputs": [
        {
          "internalType": "address",
          "name": "owner",
          "type": "address"
        }
      ],
      "name": "getZombiesByOwner",
      "outputs": [
        {
          "internalType": "uint256[]",
          "name": "",
          "type": "uint256[]"
        }
      ],
      "stateMutability": "view",
      "type": "function",
      "constant": true
    },
    {
      "inputs": [
        {
          "internalType": "uint256",
          "name": "zombieId",
          "type": "uint256"
        }
      ],
      "name": "levelUp",
      "outputs": [],
      "stateMutability": "payable",
      "type": "function",
      "payable": true
    },
    {
      "inputs": [],
      "name": "owner",
      "outputs": [
        {
          "internalType": "address payable",
          "name": "",
          "type": "address"
        }
      ],
      "stateMutability": "view",
      "type": "function",
      "constant": true
    },
    {
      "inputs": [
        {
          "internalType": "address",
          "name": "ckAddress",
          "type": "address"
        }
      ],
      "name": "setKittyContractAddress",
      "outputs": [],
      "stateMutability": "nonpayable",
      "type": "function"
    },
    {
      "inputs": [
        {
          "internalType": "uint256",
          "name": "fee",
          "type": "uint256"
        }
      ],
      "name": "setLevelUpFee",
      "outputs": [],
      "stateMutability": "nonpayable",
      "type": "function"
    },
    {
      "inputs": [
        {
          "internalType": "address payable",
          "name": "newOwner",
          "type": "address"
        }
      ],
      "name": "transferOwnership",
      "outputs": [],
      "stateMutability": "nonpayable",
      "type": "function"
    },
    {
      "inputs": [],
      "name": "withdraw",
      "outputs": [],
      "stateMutability": "nonpayable",
      "type": "function"
    },
    {
      "inputs": [
        {
          "internalType": "uint256",
          "name": "",
          "type": "uint256"
        }
      ],
      "name": "zombieToOwner",
      "outputs": [
        {
          "internalType": "address",
          "name": "",
          "type": "address"
        }
      ],
      "stateMutability": "view",
      "type": "function",
      "constant": true
    },
    {
      "inputs": [
        {
          "internalType": "uint256",
          "name": "",
          "type": "uint256"
        }
      ],
      "name": "zombies",
      "outputs": [
        {
          "internalType": "string",
          "name": "name",
          "type": "string"
        },
        {
          "internalType": "uint256",
          "name": "dna",
          "type": "uint256"
        },
        {
          "internalType": "uint32",
          "name": "level",
          "type": "uint32"
        },
        {
          "internalType": "uint32",
          "name": "readyTime",
          "type": "uint32"
        },
        {
          "internalType": "uint16",
          "name": "winCount",
          "type": "uint16"
        },
        {
          "internalType": "uint16",
          "name": "lossCount",
          "type": "uint16"
        }
      ],
      "stateMutability": "view",
      "type": "function",
      "constant": true
    },
    {
      "inputs": [
        {
          "internalType": "address",
          "name": "owner",
          "type": "address"
        }
      ],
      "name": "balanceOf",
      "outputs": [
        {
          "internalType": "uint256",
          "name": "balance",
          "type": "uint256"
        }
      ],
      "stateMutability": "view",
      "type": "function",
      "constant": true
    },
    {
      "inputs": [
        {
          "internalType": "uint256",
          "name": "tokenId",
          "type": "uint256"
        }
      ],
      "name": "ownerOf",
      "outputs": [
        {
          "internalType": "address",
          "name": "owner",
          "type": "address"
        }
      ],
      "stateMutability": "view",
      "type": "function",
      "constant": true
    },
    {
      "inputs": [
        {
          "internalType": "address",
          "name": "to",
          "type": "address"
        },
        {
          "internalType": "uint256",
          "name": "tokenId",
          "type": "uint256"
        }
      ],
      "name": "transfer",
      "outputs": [],
      "stateMutability": "nonpayable",
      "type": "function"
    },
    {
      "inputs": [
        {
          "internalType": "address",
          "name": "to",
          "type": "address"
        },
        {
          "internalType": "uint256",
          "name": "tokenId",
          "type": "uint256"
        }
      ],
      "name": "approve",
      "outputs": [],
      "stateMutability": "nonpayable",
      "type": "function"
    },
    {
      "inputs": [
        {
          "internalType": "uint256",
          "name": "tokenId",
          "type": "uint256"
        }
      ],
      "name": "takeOwnership",
      "outputs": [],
      "stateMutability": "nonpayable",
      "type": "function"
    }
  ],
  "bytecode": "0x60806040526010600155600154600a0a6002556201518060035566038d7ea4c6800060085560006009556046600a5534801561003a57600080fd5b50336000806101000a81548173ffffffffffffffffffffffffffffffffffffffff021916908373ffffffffffffffffffffffffffffffffffffffff1602179055506120ab8061008a6000396000f3fe60806040526004361061011f5760003560e01c80636b0bfc80116100a0578063b2e6ceeb11610064578063b2e6ceeb1461079f578063c39cbef1146107da578063ccf670f8146108ac578063e1fa7638146108e7578063f2fde38b1461092c5761011f565b80636b0bfc80146104fa57806370a08231146105d65780637bff0a011461063b5780638da5cb5b14610703578063a9059cbb146107445761011f565b80634412e104116100e75780634412e104146102f4578063528b7b8f1461039a5780635f4623f1146103ff5780635faf2880146104505780636352211e146104955761011f565b8063095ea7b3146101245780630ce90ec21461017f57806317a7f4cc146101ad5780632052465e146101f25780633ccfd60b146102dd575b600080fd5b34801561013057600080fd5b5061017d6004803603604081101561014757600080fd5b81019080803573ffffffffffffffffffffffffffffffffffffffff1690602001909291908035906020019092919050505061097d565b005b6101ab6004803603602081101561019557600080fd5b8101908080359060200190929190505050610aa5565b005b3480156101b957600080fd5b506101f0600480360360408110156101d057600080fd5b810190808035906020019092919080359060200190929190505050610aff565b005b3480156101fe57600080fd5b5061022b6004803603602081101561021557600080fd5b8101908080359060200190929190505050610c8a565b60405180806020018781526020018663ffffffff1681526020018563ffffffff1681526020018461ffff1681526020018361ffff168152602001828103825288818151815260200191508051906020019080838360005b8381101561029d578082015181840152602081019050610282565b50505050905090810190601f1680156102ca5780820380516001836020036101000a031916815260200191505b5097505050505050505060405180910390f35b3480156102e957600080fd5b506102f2610daa565b005b34801561030057600080fd5b506103436004803603602081101561031757600080fd5b81019080803573ffffffffffffffffffffffffffffffffffffffff169060200190929190505050610e6b565b6040518080602001828103825283818151815260200191508051906020019060200280838360005b8381101561038657808201518184015260208101905061036b565b505050509050019250505060405180910390f35b3480156103a657600080fd5b506103d3600480360360208110156103bd57600080fd5b8101908080359060200190929190505050610fb5565b604051808273ffffffffffffffffffffffffffffffffffffffff16815260200191505060405180910390f35b34801561040b57600080fd5b5061044e6004803603602081101561042257600080fd5b81019080803573ffffffffffffffffffffffffffffffffffffffff169060200190929190505050610fe8565b005b34801561045c57600080fd5b506104936004803603604081101561047357600080fd5b810190808035906020019092919080359060200190929190505050611084565b005b3480156104a157600080fd5b506104ce600480360360208110156104b857600080fd5b810190808035906020019092919050505061115e565b604051808273ffffffffffffffffffffffffffffffffffffffff16815260200191505060405180910390f35b34801561050657600080fd5b506105d46004803603606081101561051d57600080fd5b8101908080359060200190929190803590602001909291908035906020019064010000000081111561054e57600080fd5b82018360208201111561056057600080fd5b8035906020019184600183028401116401000000008311171561058257600080fd5b91908080601f016020809104026020016040519081016040528093929190818152602001838380828437600081840152601f19601f82011690508083019250505050505050919291929050505061119b565b005b3480156105e257600080fd5b50610625600480360360208110156105f957600080fd5b81019080803573ffffffffffffffffffffffffffffffffffffffff16906020019092919050505061137d565b6040518082815260200191505060405180910390f35b34801561064757600080fd5b506107016004803603602081101561065e57600080fd5b810190808035906020019064010000000081111561067b57600080fd5b82018360208201111561068d57600080fd5b803590602001918460018302840111640100000000831117156106af57600080fd5b91908080601f016020809104026020016040519081016040528093929190818152602001838380828437600081840152601f19601f8201169050808301925050505050505091929192905050506113c6565b005b34801561070f57600080fd5b5061071861142d565b604051808273ffffffffffffffffffffffffffffffffffffffff16815260200191505060405180910390f35b34801561075057600080fd5b5061079d6004803603604081101561076757600080fd5b81019080803573ffffffffffffffffffffffffffffffffffffffff16906020019092919080359060200190929190505050611451565b005b3480156107ab57600080fd5b506107d8600480360360208110156107c257600080fd5b81019080803590602001909291905050506114cd565b005b3480156107e657600080fd5b506108aa600480360360408110156107fd57600080fd5b81019080803590602001909291908035906020019064010000000081111561082457600080fd5b82018360208201111561083657600080fd5b8035906020019184600183028401116401000000008311171561085857600080fd5b91908080601f016020809104026020016040519081016040528093929190818152602001838380828437600081840152601f19601f820116905080830192505050505050509192919290505050611554565b005b3480156108b857600080fd5b506108e5600480360360208110156108cf57600080fd5b810190808035906020019092919050505061163e565b005b3480156108f357600080fd5b5061092a6004803603604081101561090a57600080fd5b8101908080359060200190929190803590602001909291905050506116a0565b005b34801561093857600080fd5b5061097b6004803603602081101561094f57600080fd5b81019080803573ffffffffffffffffffffffffffffffffffffffff169060200190929190505050611897565b005b806005600082815260200190815260200160002060009054906101000a900473ffffffffffffffffffffffffffffffffffffffff1673ffffffffffffffffffffffffffffffffffffffff163373ffffffffffffffffffffffffffffffffffffffff16146109e957600080fd5b82600b600084815260200190815260200160002060006101000a81548173ffffffffffffffffffffffffffffffffffffffff021916908373ffffffffffffffffffffffffffffffffffffffff1602179055508273ffffffffffffffffffffffffffffffffffffffff163373ffffffffffffffffffffffffffffffffffffffff167f8c5be1e5ebec7d5bd14f71427d1e84f3dd0314c0f7b2291e5b200ac8c7c3b925846040518082815260200191505060405180910390a3505050565b6008543414610ab357600080fd5b610afb600160048381548110610ac557fe5b906000526020600020906003020160020160009054906101000a900463ffffffff1663ffffffff166119e690919063ffffffff16565b5050565b6000600760009054906101000a900473ffffffffffffffffffffffffffffffffffffffff1673ffffffffffffffffffffffffffffffffffffffff1663e98b7f4d836040518263ffffffff1660e01b8152600401808281526020019150506101406040518083038186803b158015610b7557600080fd5b505afa158015610b89573d6000803e3d6000fd5b505050506040513d610140811015610ba057600080fd5b810190808051906020019092919080519060200190929190805190602001909291908051906020019092919080519060200190929190805190602001909291908051906020019092919080519060200190929190805190602001909291908051906020019092919050505090919293949596979850909192939495969750909192939495965090919293949550909192939450909192935090919250909150905080915050610c8583826040518060400160405280600581526020017f6b6974747900000000000000000000000000000000000000000000000000000081525061119b565b505050565b60048181548110610c9a57600080fd5b9060005260206000209060030201600091509050806000018054600181600116156101000203166002900480601f016020809104026020016040519081016040528092919081815260200182805460018160011615610100020316600290048015610d465780601f10610d1b57610100808354040283529160200191610d46565b820191906000526020600020905b815481529060010190602001808311610d2957829003601f168201915b5050505050908060010154908060020160009054906101000a900463ffffffff16908060020160049054906101000a900463ffffffff16908060020160089054906101000a900461ffff169080600201600a9054906101000a900461ffff16905086565b60008054906101000a900473ffffffffffffffffffffffffffffffffffffffff1673ffffffffffffffffffffffffffffffffffffffff163373ffffffffffffffffffffffffffffffffffffffff1614610e0257600080fd5b60008054906101000a900473ffffffffffffffffffffffffffffffffffffffff1673ffffffffffffffffffffffffffffffffffffffff166108fc479081150290604051600060405180830381858888f19350505050158015610e68573d6000803e3d6000fd5b50565b606080600660008473ffffffffffffffffffffffffffffffffffffffff1673ffffffffffffffffffffffffffffffffffffffff1681526020019081526020016000205467ffffffffffffffff81118015610ec457600080fd5b50604051908082528060200260200182016040528015610ef35781602001602082028036833780820191505090505b5090506000805b600480549050811015610faa578473ffffffffffffffffffffffffffffffffffffffff166005600083815260200190815260200160002060009054906101000a900473ffffffffffffffffffffffffffffffffffffffff1673ffffffffffffffffffffffffffffffffffffffff161415610f9d5780838381518110610f7b57fe5b602002602001018181525050610f9b600183611a0e90919063ffffffff16565b505b8080600101915050610efa565b508192505050919050565b60056020528060005260406000206000915054906101000a900473ffffffffffffffffffffffffffffffffffffffff1681565b60008054906101000a900473ffffffffffffffffffffffffffffffffffffffff1673ffffffffffffffffffffffffffffffffffffffff163373ffffffffffffffffffffffffffffffffffffffff161461104057600080fd5b80600760006101000a81548173ffffffffffffffffffffffffffffffffffffffff021916908373ffffffffffffffffffffffffffffffffffffffff16021790555050565b601482816004828154811061109557fe5b906000526020600020906003020160020160009054906101000a900463ffffffff1663ffffffff1610156110c857600080fd5b836005600082815260200190815260200160002060009054906101000a900473ffffffffffffffffffffffffffffffffffffffff1673ffffffffffffffffffffffffffffffffffffffff163373ffffffffffffffffffffffffffffffffffffffff161461113457600080fd5b836004868154811061114257fe5b9060005260206000209060030201600101819055505050505050565b60006005600083815260200190815260200160002060009054906101000a900473ffffffffffffffffffffffffffffffffffffffff169050919050565b826005600082815260200190815260200160002060009054906101000a900473ffffffffffffffffffffffffffffffffffffffff1673ffffffffffffffffffffffffffffffffffffffff163373ffffffffffffffffffffffffffffffffffffffff161461120757600080fd5b60006004858154811061121657fe5b9060005260206000209060030201905061122f81611a2a565b61123857600080fd5b600254848161124357fe5b06935060006002858360010154018161125857fe5b04905060405160200180807f6b69747479000000000000000000000000000000000000000000000000000000815250600501905060405160208183030381529060405280519060200120846040516020018082805190602001908083835b602083106112d957805182526020820191506020810190506020830392506112b6565b6001836020036101000a03801982511681845116808217855250505050505090500191505060405160208183030381529060405280519060200120141561132d5760636064828161132657fe5b0682030190505b61136c6040518060400160405280600681526020017f4e6f4e616d65000000000000000000000000000000000000000000000000000081525082611a51565b61137582611cf5565b505050505050565b6000600660008373ffffffffffffffffffffffffffffffffffffffff1673ffffffffffffffffffffffffffffffffffffffff168152602001908152602001600020549050919050565b6000600660003373ffffffffffffffffffffffffffffffffffffffff1673ffffffffffffffffffffffffffffffffffffffff168152602001908152602001600020541461141257600080fd5b600061141d82611d1f565b90506114298282611a51565b5050565b60008054906101000a900473ffffffffffffffffffffffffffffffffffffffff1681565b806005600082815260200190815260200160002060009054906101000a900473ffffffffffffffffffffffffffffffffffffffff1673ffffffffffffffffffffffffffffffffffffffff163373ffffffffffffffffffffffffffffffffffffffff16146114bd57600080fd5b6114c8338484611dad565b505050565b3373ffffffffffffffffffffffffffffffffffffffff16600b600083815260200190815260200160002060009054906101000a900473ffffffffffffffffffffffffffffffffffffffff1673ffffffffffffffffffffffffffffffffffffffff161461153857600080fd5b60006115438261115e565b9050611550813384611dad565b5050565b600282816004828154811061156557fe5b906000526020600020906003020160020160009054906101000a900463ffffffff1663ffffffff16101561159857600080fd5b836005600082815260200190815260200160002060009054906101000a900473ffffffffffffffffffffffffffffffffffffffff1673ffffffffffffffffffffffffffffffffffffffff163373ffffffffffffffffffffffffffffffffffffffff161461160457600080fd5b836004868154811061161257fe5b90600052602060002090600302016000019080519060200190611636929190611fca565b505050505050565b60008054906101000a900473ffffffffffffffffffffffffffffffffffffffff1673ffffffffffffffffffffffffffffffffffffffff163373ffffffffffffffffffffffffffffffffffffffff161461169657600080fd5b8060088190555050565b816005600082815260200190815260200160002060009054906101000a900473ffffffffffffffffffffffffffffffffffffffff1673ffffffffffffffffffffffffffffffffffffffff163373ffffffffffffffffffffffffffffffffffffffff161461170c57600080fd5b60006004848154811061171b57fe5b9060005260206000209060030201905060006004848154811061173a57fe5b9060005260206000209060030201905060006117566064611f11565b9050600a54811161182f5761178b60018460020160089054906101000a900461ffff1661ffff16611f8f90919063ffffffff16565b506117ba60018460020160009054906101000a900463ffffffff1663ffffffff166119e690919063ffffffff16565b506117e5600183600201600a9054906101000a900461ffff1661ffff16611f8f90919063ffffffff16565b5061182a8683600101546040518060400160405280600681526020017f7a6f6d626965000000000000000000000000000000000000000000000000000081525061119b565b61188f565b611859600184600201600a9054906101000a900461ffff1661ffff16611f8f90919063ffffffff16565b5061188460018360020160089054906101000a900461ffff1661ffff16611f8f90919063ffffffff16565b5061188e83611cf5565b5b505050505050565b60008054906101000a900473ffffffffffffffffffffffffffffffffffffffff1673ffffffffffffffffffffffffffffffffffffffff163373ffffffffffffffffffffffffffffffffffffffff16146118ef57600080fd5b600073ffffffffffffffffffffffffffffffffffffffff168173ffffffffffffffffffffffffffffffffffffffff16141561192957600080fd5b8073ffffffffffffffffffffffffffffffffffffffff1660008054906101000a900473ffffffffffffffffffffffffffffffffffffffff1673ffffffffffffffffffffffffffffffffffffffff167f8be0079c531659141344cd1fd0a4f28419497f9722a3daafe3b4186f6b6457e060405160405180910390a3806000806101000a81548173ffffffffffffffffffffffffffffffffffffffff021916908373ffffffffffffffffffffffffffffffffffffffff16021790555050565b60008082840190508363ffffffff168163ffffffff161015611a0457fe5b8091505092915050565b600080828401905083811015611a2057fe5b8091505092915050565b6000428260020160049054906101000a900463ffffffff1663ffffffff1611159050919050565b60046040518060c00160405280848152602001838152602001600163ffffffff168152602001600354420163ffffffff168152602001600061ffff168152602001600061ffff1681525090806001815401808255809150506001900390600052602060002090600302016000909190919091506000820151816000019080519060200190611ae0929190611fca565b506020820151816001015560408201518160020160006101000a81548163ffffffff021916908363ffffffff16021790555060608201518160020160046101000a81548163ffffffff021916908363ffffffff16021790555060808201518160020160086101000a81548161ffff021916908361ffff16021790555060a082015181600201600a6101000a81548161ffff021916908361ffff16021790555050506000611b9c6001600480549050611fb390919063ffffffff16565b9050336005600083815260200190815260200160002060006101000a81548173ffffffffffffffffffffffffffffffffffffffff021916908373ffffffffffffffffffffffffffffffffffffffff160217905550611c436001600660003373ffffffffffffffffffffffffffffffffffffffff1673ffffffffffffffffffffffffffffffffffffffff16815260200190815260200160002054611a0e90919063ffffffff16565b507f88f026aacbbecc90c18411df4b1185fd8d9be2470f1962f192bf84a27d0704b78184846040518084815260200180602001838152602001828103825284818151815260200191508051906020019080838360005b83811015611cb4578082015181840152602081019050611c99565b50505050905090810190601f168015611ce15780820380516001836020036101000a031916815260200191505b5094505050505060405180910390a1505050565b60035442018160020160046101000a81548163ffffffff021916908363ffffffff16021790555050565b600080826040516020018082805190602001908083835b60208310611d595780518252602082019150602081019050602083039250611d36565b6001836020036101000a0380198251168184511680821785525050505050509050019150506040516020818303038152906040528051906020012060001c90506002548181611da457fe5b06915050919050565b611e006001600660008573ffffffffffffffffffffffffffffffffffffffff1673ffffffffffffffffffffffffffffffffffffffff16815260200190815260200160002054611a0e90919063ffffffff16565b50611e546001600660008673ffffffffffffffffffffffffffffffffffffffff1673ffffffffffffffffffffffffffffffffffffffff16815260200190815260200160002054611fb390919063ffffffff16565b50816005600083815260200190815260200160002060006101000a81548173ffffffffffffffffffffffffffffffffffffffff021916908373ffffffffffffffffffffffffffffffffffffffff1602179055508173ffffffffffffffffffffffffffffffffffffffff168373ffffffffffffffffffffffffffffffffffffffff167fddf252ad1be2c89b69c2b068fc378daa952ba7f163c4a11628f55a4df523b3ef836040518082815260200191505060405180910390a3505050565b6000611f296001600954611a0e90919063ffffffff16565b50814233600954604051602001808481526020018373ffffffffffffffffffffffffffffffffffffffff1660601b815260140182815260200193505050506040516020818303038152906040528051906020012060001c81611f8757fe5b069050919050565b60008082840190508361ffff168161ffff161015611fa957fe5b8091505092915050565b600082821115611fbf57fe5b818303905092915050565b828054600181600116156101000203166002900490600052602060002090601f0160209004810192826120005760008555612047565b82601f1061201957805160ff1916838001178555612047565b82800160010185558215612047579182015b8281111561204657825182559160200191906001019061202b565b5b5090506120549190612058565b5090565b5b80821115612071576000816000905550600101612059565b509056fea2646970667358221220d339ab0be36bd40c22375584d832257551291676081b14b551a561fbf9f0a2f464736f6c63430007040033",
  "immutableReferences": {},
  "source": "// SPDX-License-Identifier: MIT\npragma solidity =0.7.4;\n\nimport \"./ZombieBattle.sol\";\nimport \"../interface/ERC721.sol\";\n\n/// @title ERC721\n/// @author Scott.She\n/// @notice NFT\ncontract ZombieOwnerShip is ZombieBattle, ERC721 {\n\n    using SafeMath for uint256;\n    using SafeMath32 for uint32;\n    using SafeMath16 for uint16;\n\n    //  \n    mapping (uint256 => address) zombieApprovals;\n\n    /// @notice  owner \n    /// @param owner \n    /// @return balance owner\n    function balanceOf(address owner) override public view returns (uint256 balance) {\n        return ownerZombieCount[owner];\n    }\n\n    /// @notice tokenId  owner\n    /// @param tokenId id\n    /// @return owner idowner\n    function ownerOf(uint256 tokenId) override public view returns (address owner) {\n        return zombieToOwner[tokenId];\n    }\n\n    /// @notice , from -> to; owner\n    /// @param to \n    /// @param tokenId id\n    /// @dev \n    function transfer(address to, uint256 tokenId) override external onlyOwnerOf(tokenId) {\n        _transfer(msg.sender, to, tokenId);\n    }\n\n    /// @notice owner , ,  takeOwnership ;  owner \n    /// @param to \n    /// @param tokenId id\n    /// @dev Approval\n    function approve(address to, uint256 tokenId) override external onlyOwnerOf(tokenId) {\n        zombieApprovals[tokenId] = to;\n        emit Approval(msg.sender, to, tokenId);\n    }\n\n    /// @notice owner; . , \n    /// @param tokenId id\n    /// @dev  tokenId \n    function takeOwnership(uint256 tokenId) override external {\n        require(zombieApprovals[tokenId] == msg.sender);\n        address owner = ownerOf(tokenId);\n        _transfer(owner, msg.sender, tokenId);\n    }\n\n    /// @notice , \n    /// @param from \n    /// @param to \n    /// @param tokenId id\n    /// @dev Transfer\n    function _transfer(address from, address to, uint256 tokenId) private {\n        ownerZombieCount[to].add(1);\n        ownerZombieCount[from].sub(1);\n        zombieToOwner[tokenId] = to;\n        emit Transfer(from, to, tokenId);\n    }\n\n}",
  "sourcePath": "/Users/scott/Desktop/dapp/contracts/module/ZombieOwnerShip.sol",
  "compiler": {
    "name": "solc",
    "version": "0.7.4+commit.3f05b770.Emscripten.clang"
  },
  "schemaVersion": "3.3.4",
  "updatedAt": "2021-03-19T07:43:02.942Z",
  "networkType": "ethereum",
  "devdoc": {
    "author": "Scott.She",
    "kind": "dev",
    "methods": {
      "approve(address,uint256)": {
        "details": "Approval",
        "params": {
          "to": "",
          "tokenId": "id"
        }
      },
      "balanceOf(address)": {
        "params": {
          "owner": ""
        },
        "returns": {
          "balance": "owner"
        }
      },
      "ownerOf(uint256)": {
        "params": {
          "tokenId": "id"
        },
        "returns": {
          "owner": "idowner"
        }
      },
      "takeOwnership(uint256)": {
        "details": " tokenId ",
        "params": {
          "tokenId": "id"
        }
      },
      "transfer(address,uint256)": {
        "details": "",
        "params": {
          "to": "",
          "tokenId": "id"
        }
      },
      "transferOwnership(address)": {
        "details": "Allows the current owner to transfer control of the contract to a newOwner.",
        "params": {
          "newOwner": "The address to transfer ownership to."
        }
      }
    },
    "title": "ERC721",
    "version": 1
  },
  "userdoc": {
    "kind": "user",
    "methods": {
      "approve(address,uint256)": {
        "notice": "owner , ,  takeOwnership ;  owner "
      },
      "balanceOf(address)": {
        "notice": " owner "
      },
      "ownerOf(uint256)": {
        "notice": "tokenId  owner"
      },
      "takeOwnership(uint256)": {
        "notice": "owner; . , "
      },
      "transfer(address,uint256)": {
        "notice": ", from -> to; owner"
      }
    },
    "notice": "NFT",
    "version": 1
  }
}